:020000020000FC
:100000000DE304B905B900E007B900E90AB95F9842
:100010005C980FEF10EF0E94440003E00E943E0046
:100020000FE90E943E0005E20E943E000DE00E94A2
:100030003E0009E90E943E0009E40E943E0001E4FE
:100040000E943E000FE10E943E0001E00E943E003F
:1000500009E00E943E0001E10E943E0001EC0E9486
:100060003E0003E60E943E0005E80E943E0001E6D5
:100070000E943E0001E70E943E00CFCF10E10E94A7
:1000800044000E94570008950E944C00012F0E94D6
:100090004C005C9A5C98089528E05F98069510F0F3
:1000A000289801C0289A5F9A2A95B9F70895F3E530
:1000B000EBEFDFEFDA95F1F7EA95D9F7FA95C1F7AB
:0A00C000F2E0FA95F1F70000089550
:00000001FF
