:020000020000FC
:100000000DE304B905B900E007B900E90AB95F9842
:100010005C980FEF10EF0E94270009E00E94120089
:1000200010E1FBCF003031F1013041F1023051F1EC
:10003000033061F1043071F1053081F1063091F146
:100040000730A1F10830B1F10930C1F108950E94E3
:100050002F00212F0E942F005C9A5C98089538E0B1
:100060005F98269510F0289801C0289A5F9A3A95D3
:10007000B9F7089523E00E94270008952FE90E9410
:100080002700089525E20E94270008952DE00E9490
:100090002700089529E90E942700089529E40E9475
:1000A0002700089521E40E94270008952FE10E946F
:1000B0002700089521E00E942700089529E00E946A
:0400C0002700089578
:00000001FF
