:020000020000FC
:100000000DE304B905B900E007B900E90AB95F9842
:100010005C980FEF10EF0E945F00B3E00E942C008D
:10002000BFE90E942C00B5E20E942C00BDE00E94B6
:100030002C00B9E90E942C00B9E40E942C00B1E424
:100040000E942C00BFE10E942C00B1E00E942C0015
:10005000B9E00E942C00E1CFC3E00E944A00CFE942
:100060000E944A00C5E20E944A00CDE00E944A0078
:10007000C9E90E944A00C9E40E944A00C1E40E9402
:100080004A00CFE10E944A00C1E00E944A00C9E054
:100090000E944A0098E70C2F3B2F0E9457000E94B5
:1000A00085000E945B000E9485009A95A1F710E1EF
:1000B0000E945F00089510E20E94720008950E945D
:1000C0006700012F0E9467005C9A5C98089528E001
:1000D0005F98069510F0289801C0289A5F9A2A9593
:1000E000B9F708950E947A00312F0E947A005C9A35
:1000F0005C98089528E05F98369510F0289801C024
:10010000289A5F9A2A95B9F70895D5E6EBEDEA9516
:0E011000F1F7DA95D9F7D2E0DA95F1F7089514
:00000001FF
