:020000020000FC
:100000000DE304B905B900E007B900E90AB95F9842
:100010005C980FEF10EF0E946100B3E00E942C008B
:10002000BFE90E942C00B5E20E942C00BDE00E94B6
:100030002C00B9E90E942C00B9E40E942C00B1E424
:100040000E942C00BFE10E942C00B1E00E942C0015
:10005000B9E00E942C00E1CFC3E00E944B00CFE941
:100060000E944B00C5E20E944B00CDE00E944B0075
:10007000C9E90E944B00C9E40E944B00C1E40E9400
:100080004B00CFE10E944B00C1E00E944B00C9E051
:100090000E944B00089598E70C2F3B2F0E945900B7
:1000A0000E9487000E945D000E9487009A95A1F738
:1000B000089510E10E946100089510E20E9474000A
:1000C00008950E946900012F0E9469005C9A5C9863
:1000D000089528E05F98069510F0289801C0289AA6
:1000E0005F9A2A95B9F708950E947C00312F0E94EB
:1000F0007C005C9A5C98089528E05F98369510F033
:10010000289801C0289A5F9A2A95B9F70895D5E6EC
:10011000EBEDEA95F1F7DA95D9F7D2E0DA95F1F758
:02012000089540
:00000001FF
