:020000020000FC
:100000000CE304B90BEF05B9D3E2E2E3F4EDFA95A2
:10001000F1F7EA95D9F7DA95C1F70895DFE0E2E361
:10002000F4EDFA95A1F7EA9589F7DA9571F7089555
:100030000BEF05B90E94040003EF05B90E9404000C
:1000400003EE05B90E940E0007EE05B90E940400F8
:1000500007EC05B90E940E000FEC05B90E940400E0
:100060000FED05B90E9404000FEC05B90E940400D1
:1000700007EC05B90E940E0007EE05B90E940400C6
:1000800003EE05B90E940E0003EF05B90E940400BB
:0A0090000BEF05B90E940400CBCF6E
:00000001FF
